:1000000045C0000060C000005EC000005CC0000091
:100010005AC0000058C0000056C0000054C0000084
:1000200052C0000050C000004EC000004CC0000094
:100030004AC0000048C0000046C0000044C00000A4
:1000400042C0000040C000003EC000003CC00000B4
:100050003AC0000038C0000036C0000034C00000C4
:1000600032C0000030C000002EC000002CC00000D4
:100070002AC0000028C0000026C0000024C00000E4
:1000800022C0000020C000001EC0000011241FBEBE
:10009000CFEFD0E4DEBFCDBF11E0A0E0B1E0EAEEEB
:1000A000F7E000E00BBF02C007900D92A032B1074D
:1000B000D9F721E0A0E2B1E001C01D92A932B20758
:1000C000E1F7FCD190C39CCF0F931F93CF93DF93A5
:1000D00000D000D0CDB7DEB769837A838B839C8351
:1000E0008091240190912501A0912601B0912701D2
:1000F0009C01AD0169817A818B819C81FBD1882330
:1001000009F471C020E030E0A90169817A818B8116
:100110009C81F0D1882351F481E990E021E930E01D
:10012000F90120812870FC01208309C081E990E059
:1001300021E930E0F90120812360FC01208328E5DA
:1001400039E344E75FE369817A818B819C81D2D175
:10015000882344F488E990E02FEF3FEFFC013183DE
:10016000208330C020E034E244EF56E469817A8194
:100170008B819C81D1D2181634F488E990E0FC017F
:10018000118210821FC008E910E020E030E040E05A
:1001900053E469817A818B819C81C2D2DC01CB01DD
:1001A0009C01AD0160E074E284EF9AE4A7D1DC0128
:1001B000CB01BC01CD010AD2DC01CB010197F801D2
:1001C0009183808384E990E0FC011182108289810F
:1001D0009A81AB81BC818093240190932501A093E7
:1001E0002601B09327010F900F900F900F90DF9191
:1001F000CF911F910F910895CF93DF93CDB7DEB7C5
:1002000080E990E020E4FC01208381E990E02BE08C
:10021000FC01208360E070E0CB0156DFDF91CF91DD
:100220000895CF93DF93CDB7DEB780E290E0FC0175
:100230008081882F90E08170992721E0009709F054
:1002400020E0822F8093210180E290E0FC018081F8
:10025000809582708093220180E290E0FC01808191
:10026000809584708093230180912801882F90E0ED
:100270008230910509F451C08330910534F4009720
:1002800089F08130910531F1CEC08430910509F4B7
:100290009AC0843091050CF450C08530910509F462
:1002A000AAC0C1C080912101882361F08091220100
:1002B000882341F480912301882321F481E08093F5
:1002C0002801B4C080912101882309F0AFC01092A9
:1002D0002801ACC080912101882361F08091220126
:1002E000882341F480912301882321F481E08093C5
:1002F00028019EC080912101882309F099C0809136
:100300002201882309F094C080912301882309F0F9
:100310008FC083E0809328018BC0809121018823C6
:1003200021F082E08093280185C0809121018823FB
:1003300009F080C0109228017DC08091210188239E
:1003400021F082E08093280177C0809122018823E8
:1003500089F080912301882369F484E08093280147
:1003600080912001873070F5809120018F5F80930C
:10037000200128C080912201882389F480912301E3
:10038000882369F085E080932801809120018823EB
:10039000C9F08091200181508093200113C0809189
:1003A0002101882309F048C080912201882309F0A7
:1003B00043C080912301882309F03EC083E08093ED
:1003C00028013AC039C080912201882341F08091F0
:1003D0002301882321F484E0809328012FC0809199
:1003E0002201882359F580912301882339F583E080
:1003F0008093280123C080912201882341F48091B9
:100400002301882321F085E08093280119C0809181
:1004100022018823A9F480912301882389F483E0B1
:10042000809328010DC0109228010BC0000009C064
:10043000000007C0000005C0000003C0000001C0AC
:10044000000080912801882F90E082309105D1F042
:100450008330910534F4009759F08130910569F0AB
:100460002AC08430910531F18430910584F023C095
:1004700060E070E0CB0128DE1EC060E070E0CB01E0
:1004800023DE19C060E070E0CB011EDE14C0809155
:100490002001882F90E0880F991F880F991F8050A6
:1004A0009F4FFC0180819181A281B381BC01CD016C
:1004B0000BDE01C00000DF91CF910895CF93DF9351
:1004C000CDB7DEB784E290E02FEFFC01208385E218
:1004D00090E02FEFFC01208381E290E0FC0110828C
:1004E00082E290E02FEFFC0120831092280184DE4D
:1004F00098DEFECF9CD008F481E008950CD0D2C0E5
:10050000CAD040F0C1D030F021F45F3F19F0B3C041
:100510005111FCC0B6C0D7D098F39923C9F3552325
:10052000B1F3951B550BBB27AA27621773078407E6
:1005300038F09F5F5F4F220F331F441FAA1FA9F39C
:1005400033D00E2E3AF0E0E830D091505040E6958E
:10055000001CCAF729D0FE2F27D0660F771F881FEF
:10056000BB1F261737074807AB07B0E809F0BB0BDE
:10057000802DBF01FF2793585F4F2AF09E3F510502
:1005800068F079C0C3C05F3FECF3983EDCF386951A
:1005900077956795B795F7959F5FC9F7880F911D78
:1005A0009695879597F90895E1E0660F771F881F64
:1005B000BB1F621773078407BA0720F0621B730B17
:1005C000840BBA0BEE1F88F7E095089504D0689469
:1005D000B1119CC008957FD088F09F5790F0B92F3B
:1005E0009927B751A0F0D1F0660F771F881F991F88
:1005F0001AF0BA95C9F712C0B13081F086D0B1E0D7
:10060000089583C0672F782F8827B85F39F0B93FE6
:10061000CCF3869577956795B395D9F73EF4909589
:100620008095709561957F4F8F4F9F4F0895990FDB
:100630000008550FAA0BE0E8FEEF16161706E807AC
:10064000F907C0F012161306E407F50798F0621BCD
:10065000730B840B950B39F40A2661F0232B242BA2
:10066000252B21F408950A2609F4A140A6958FEFC1
:10067000811D811D089597F99F6780E870E060E013
:1006800008959FEF80EC089500240A94161617062B
:1006900018060906089500240A9412161306140673
:1006A00005060895092E0394000C11F4882352F0D6
:1006B000BB0F40F4BF2B11F460FF04C06F5F7F4F8E
:1006C0008F4F9F4F089557FD9058440F551F59F075
:1006D0005F3F71F04795880F97FB991F61F09F3F2F
:1006E00079F087950895121613061406551FF2CF58
:1006F0004695F1DF08C0161617061806991FF1CFA8
:1007000086957105610508940895E894BB276627CE
:100710007727CB0197F908958ADF08F48FEF0895C2
:100720000BD0C0CFB1DF28F0B6DF18F0952309F069
:10073000A2CFA7CF1124EACFC6DFA0F3959FD1F3B4
:10074000950F50E0551F629FF001729FBB27F00D7F
:10075000B11D639FAA27F00DB11DAA1F649F6627D4
:10076000B00DA11D661F829F2227B00DA11D621F23
:10077000739FB00DA11D621F839FA00D611D221FDD
:10078000749F3327A00D611D231F849F600D211DC1
:10079000822F762F6A2F11249F5750408AF0E1F064
:1007A00088234AF0EE0FFF1FBB1F661F771F881FAD
:1007B00091505040A9F79E3F510570F05CCFA6CFF5
:1007C0005F3FECF3983EDCF3869577956795B79598
:1007D000F795E7959F5FC1F7FE2B880F911D9695C2
:0A07E000879597F90895F894FFCF6C
:1007EA00A4D082437BD49243A4D0A443711DAC43CA
:1007FA000000C4430000DC43A4F0F64300D00244E6
:00000001FF
