:1000000045C000004BC0000049C0000047C00000D0
:1000100045C0000043C0000041C000003FC00000D8
:100020003DC000003BC0000039C0000037C00000E8
:1000300035C0000033C0000031C000002FC00000F8
:100040002DC000002BC0000029C0000027C0000008
:1000500025C0000023C0000021C000001FC0000018
:100060001DC000001BC0000019C0000017C0000028
:1000700015C0000013C0000011C000000FC0000038
:100080000DC000000BC0000009C0000011241FBEFD
:10009000CFEFD0E4DEBFCDBF50D0E7C0B1CFCF931C
:1000A000DF9300D01F92CDB7DEB789836A834B837D
:1000B0008B81882379F08A81282F30E081E090E0DD
:1000C000022E02C0880F991F0A94E2F7982F8981A7
:1000D000892B0FC08A81282F30E081E090E0022E2A
:1000E00002C0880F991F0A94E2F7982F9095898192
:1000F00089230F900F900F90DF91CF910895CF93A8
:10010000DF9300D0CDB7DEB789836A838981882FDA
:1001100090E02A81222F30E002C0959587952A959C
:10012000E2F78170992721E0009709F420E0822FFF
:100130000F900F90DF91CF910895CF93DF9300D070
:100140001F92CDB7DEB781E290E0FC01108287E21A
:1001500090E02FEFFC012083198288E290E0FC01FF
:10016000108280E290E0FC0180818F708983898118
:10017000813019F08981823031F488E290E020E208
:10018000FC0120833BC08981833019F08981843050
:1001900031F488E290E020E3FC0120832FC08981C4
:1001A000853019F08981863031F488E290E028E3C7
:1001B000FC01208323C08981873048F089818A30FF
:1001C00030F488E290E02CE1FC01208317C08981A3
:1001D0008A3048F089818D3030F488E290E02EE357
:1001E000FC0120830BC089818D3040F089818031F2
:1001F00028F488E290E02FE3FC01208388E290E07D
:10020000FC0180818A8380E290E0FC018081898307
:1002100065E0898174DF8823A1F064E089816FDF64
:10022000882379F066E089816ADF882351F441E010
:1002300067E08A8134DF8A8388E290E02A81FC01CA
:10024000208380E290E0FC0180818F708B838B8122
:10025000853050F488E290E028E230E0F901208116
:0E0260002064FC01208379CF78CFF894FFCF83
:00000001FF
