S01B000072676F73683030315F6C6162375F70617274312E7372656349
S11300008AC00000A5C00000A3C00000A1C0000079
S11300109FC000009DC000009BC0000099C000006C
S113002097C0000095C0000093C0000091C000007C
S11300308FC00000D1C000008BC0000089C0000048
S113004087C0000085C0000083C0000081C000009C
S11300507FC000007DC000007BC0000079C00000AC
S113006077C0000075C0000073C0000071C00000BC
S11300706FC000006DC000006BC0000069C00000CC
S113008067C0000065C0000063C000006F02AD02DD
S1130090AD02AD02AD02AD02AD02AD02AD02AD02E4
S11300A0AD02AD02AD02AD02AD02AD02AD02AD02D4
S11300B0AD02AD02AD02AD02AD02AD02AD02AD02C4
S11300C0AD02AD02AD02AD02AD02AD02AD02AD02B4
S11300D0AD02AA02AD02AD02AD02AD02AD02AD02A7
S11300E0A702AD02AD02AD02AD02AD0297027302EA
S11300F077027B027F02830287028B028F029302C4
S1130100AD02AD02AD02AD02AD02AD02AD029A0286
S11301109E02A102A40211241FBECFEFD0E4DEBFD1
S1130120CDBF11E0A0E0B1E0E0E7F5E000E00BBFF7
S113013002C007900D92A630B107D9F721E0A6E0DE
S1130140B1E001C01D92A831B207E1F73AD10EC265
S113015057CF21E030E0A90102C0440F551F6A9532
S1130160E2F7842308956093010170930201809360
S11301700301909304016093060170930701809337
S113018008019093090108958BE0809381008DE725
S113019090E0909389008093880082E080936F00C0
S11301A010928500109284008091010190910201C7
S11301B0A0910301B091040180930601909307017B
S11301C0A0930801B09309018FB780688FBF089589
S11301D081E080930A0108951F920F920FB60F9247
S11301E011240BB60F922F933F934F935F936F930A
S11301F07F938F939F93AF93BF93EF93FF938091DC
S1130200060190910701A0910801B091090101979D
S1130210A109B1098093060190930701A0930801F5
S1130220B0930901892B8A2B8B2B89F4D1DF809120
S1130230010190910201A0910301B0910401809306
S1130240060190930701A0930801B0930901FF915F
S1130250EF91BF91AF919F918F917F916F915F913A
S11302604F913F912F910F900BBE0F900FBE0F90A7
S11302701F9018958FEE88B9000086B160E069DFA1
S1130280882309F45EC086B161E063DF882309F442
S11302905AC086B162E05DDF882309F456C086B196
S11302A063E057DF882309F452C08FED88B900005A
S11302B086B160E04EDF882309F44BC086B161E06B
S11302C048DF882309F447C086B162E042DF88230F
S11302D009F443C086B163E03CDF882309F43FC0DE
S11302E08FEB88B9000086B160E033DF882309F41E
S11302F038C086B161E02DDF8823A9F186B162E0C0
S113030028DF882391F186B163E023DF882379F124
S11303108FE788B9000086B160E01BDF882349F1CC
S113032086B161E016DF882331F186B162E011DF26
S1130330882319F186B163E00CDF811120C084E4C5
S1130340089581E3089584E3089587E308958AE294
S1130350089582E3089585E3089588E3089580E38A
S1130360089583E3089586E3089589E3089583E275
S1130370089581E4089582E4089583E4089580E073
S11303800895009719F0019751F405C08091000178
S11303908F3191F40BC08FE18093000107C08FE18E
S11303A08093000103C0822F932F089563DF80930D
S11303B0000120E030E0F7CF8093170121E030E026
S11303C0F2CF8FEF84B915B890EF97B99FE098B941
S11303D080930B0182E390E0A0E0B0E080930C01F5
S11303E090930D01A0930E01B0930F01809310011F
S11303F090931101A0931201B093130181EC91E049
S1130400909315018093140162E370E080E090E022
S1130410AADEBADE80E090E0C0E1D1E00CE011E0B9
S1130420EE24E394F12C0F2EF4E18F2EF1E09F2EB5
S1130430F02D0F2EFBE0AF2EF1E0BF2EF02D0F2E8E
S1130440FBE12F2EF02DC12CD12C0F2EFFE03F2EDF
S1130450F02D0F2EFEE04F2EF02D0F2EFDE05F2E1F
S1130460F02D0F2EFCE06F2EF02D0F2EFBE07F2ED3
S1130470F02D29C0488159816A817B81F8018081EE
S11304809181A281B381481759076A077B0779F4E0
S1130490D5018C91D401ED91FC91992787FD90951C
S11304A00995F5018083188219821A821B8288813A
S11304B09981AA81BB810196A11DB11D888399836D
S11304C0AA83BB83C701892BA9F2E0911701F0E04D
S11304D0E534F10508F041C0EA5BFF4F41C08FE10C
S11304E085B9C601F0CF81E085B9C601ECCF82E0C1
S11304F085B9C601E8CF83E085B9C601E4CF84E0BD
S113050085B9C601E0CF85E085B9C601DCCF86E0B8
S113051085B9C601D8CF87E085B9C601D4CF88E0B4
S113052085B9C601D0CF89E085B9C601CCCF15B84D
S1130530C601C9CFFAE0F5B9C601C5CF75B8C60181
S1130540C2CF65B8C601BFCF55B8C601BCCF45B848
S1130550C601B9CF35B8C601B6CF25B8C601B3CFE9
S1130560EE0FFF1F0590F491E02D0994F894FFCF4E
S10905701F010000000061
S9030000FC
