:1000000089C00000A6C00000A4C00000A2C000007B
:10001000A0C000009EC000009CC000009AC000006C
:1000200098C0000096C0000094C0000092C000007C
:1000300090C0000019C100008CC000008AC0000000
:1000400088C0000086C0000084C0000082C000009C
:1000500080C000007EC000007CC000007AC00000AC
:1000600078C0000076C0000074C0000072C00000BC
:1000700070C000006EC000006CC000006AC00000CC
:1000800068C0000066C0000064C00000D106E10640
:10009000E506E906ED06F106F506F906FD06260772
:1000A0004F077807A107CA07F3071C081F082B088A
:1000B000300844085308610870087F088E089C08BF
:1000C000AF08B808C108CA08D308DE08EA0803095F
:1000D0004209520956095A095E09620966096A0904
:1000E0006E099009B909E2090B0A340A5D0A870A08
:1000F0008A0A960A9B0AB10AC20AD20AE30AF40AD9
:10010000050B150B2C0B380B440B500B5C0B680BC1
:10011000740B8E0B11241FBECFEFD0E4DEBFCDBF1A
:1001200012E0A0E0B1E0E6E1F8E100E00BBF02C0C0
:1001300007900D92A632B107D9F722E0A6E2B2E00D
:1001400001C01D92AF33B207E1F70E94AF0B0C94D0
:10015000090C56CF181619065CF0089500002150BE
:100160003109E1F74F5F5F4F4817590729F40895A8
:1001700040E050E067E073E09B01F0CF109A8BB94C
:10018000119A0000119881E090E0E4CF10988BB9AB
:10019000119A0000119882E090E0DCCF813110F4D8
:1001A0008158F4CF8155F2CF81E0F0CF1F93CF93E8
:1001B000DF93182FEB01F8DF9881992351F0812FFD
:1001C000182F1F5FEBDF8991D9DF812F9881911163
:1001D000F7CFDF91CF911F91089584E690E0BADFC9
:1001E00088E3D4DF86E0D2DF8FE0D0DF81E0CEDFAE
:1001F0008AE090E0AFCF6093210170932201809359
:10020000230190932401609333027093340280930E
:1002100035029093360208958BE0809381008DE73C
:1002200090E0909389008093880082E080936F0033
:1002300010928500109284008091210190912201FA
:10024000A0912301B0912401809333029093340252
:10025000A0933502B09336028FB780688FBF0895A0
:1002600081E08093370208951F920F920FB60F928C
:1002700011240BB60F922F933F934F935F936F937D
:100280007F938F939F93AF93BF93EF93FF9380914F
:10029000330290913402A0913502B0913602019759
:1002A000A109B1098093330290933402A0933502DF
:1002B000B0933602892B8A2B8B2B89F4D1DF809166
:1002C000210190912201A0912301B09124018093FA
:1002D000330290933402A0933502B0933602FF911B
:1002E000EF91BF91AF919F918F917F916F915F91AE
:1002F0004F913F912F910F900BBE0F900FBE0F901B
:100300001F9018951092300210922F0210922E0218
:1003100020B12095247020932A0230B13095387096
:100320003093290240B1409540714093280280B13A
:10033000809580728093270290B1909590749093ED
:10034000260280913B02813009F43DC038F08230B2
:1003500009F43DC0833009F06EC060C0992329F0D4
:100360001092320210923B0275C0222351F080910C
:100370002B02811106C01092320281E080933B0271
:1003800081C0332399F080912B0281110FC010920C
:10039000320282E080933B0207DF81E0FFDE609162
:1003A0001C0170911D0181E001DF48C0442309F464
:1003B00051C080912B0281114DC01092320283E016
:1003C00080933B028DC084E080933B020895992383
:1003D00029F01092320210923B023CC0222351F0CD
:1003E00080912001853030F4109232028F5F80932B
:1003F000200124C0332351F080912001823030F05D
:100400001092320281508093200118C0442309F4D5
:1004100058C01092320210923B021CC0992329F05E
:100420001092320210923B0215C01092320283E009
:1004300080933B0255C010923B020CC080913B025E
:10044000813001F138F0823009F43BC0833009F08B
:100450005DC046C06CE271E080E090E0CCDE80914F
:100460003202811153C0A0DE81E098DE60911E014E
:1004700070911F0181E09ADE80E080DE81E0809350
:100480003202089580912001813019F48093300266
:100490000895823021F481E080932F020895833003
:1004A00021F481E080932E020895843021F481E0CC
:1004B00080932D020895853049F581E080932C02C8
:1004C000089580913202811121C06EDE81E066DEE6
:1004D00080912001805D52DE81E080933202089598
:1004E00080913202811112C05FDE81E057DE60919F
:1004F00016017091170181E059DE8EE290E00E94B2
:10050000F30B805D3BDE81E080933202089590B171
:100510009095947090932A0220B120952870209392
:10052000290230B1309530713093280240B14095A6
:1005300040724093270250B1509550745093260258
:1005400080913902823019F130F4882359F08130DA
:1005500009F04CC018C0833009F442C0843009F05F
:1005600045C041C010922B0280913002811103C01E
:10057000109239024DC01092310281E0809339020D
:1005800080932B0233C082E0809339025FC09923AD
:1005900079F0809131028F5F8093310290913C021B
:1005A000891710F080933C0284E08093390277C071
:1005B000211104C0311102C0442361F08091310245
:1005C00090913C02891710F080933C0283E0809365
:1005D00039024FC0552309F439C01092390218C0AE
:1005E0001092390215C01092390212C0809139025E
:1005F000823061F130F4882359F0813009F065C010
:1006000011C0833009F435C0843009F05EC047C0A2
:1006100064EF71E080E090E0EEDD10923002109225
:100620002B02089560ED77E080E090E0E4DD9FEF3D
:1006300094B98FE085B997B988B9B6DD81E0AEDDB0
:1006400060911C0170911D0181E0B0CD64EF71E0FB
:1006500080E090E0D0DD8FEF84B985B987B918B814
:10066000A3DD81E09BDD609114017091150181E0B3
:100670009DCD60913C028EE290E00E94FB0B68EE03
:1006800073E080E090E0B7DD8FDD81E087DD609191
:1006900018017091190181E089DD80E06FCD6091D2
:1006A0003C028EE290E00E94FB0B68EE73E080E07B
:1006B00090E0A1DD79DD81E071DD60911A0170913A
:1006C0001B0181E073DD80E059CD089590B19095D4
:1006D000947090932A0230B130953870309329028B
:1006E00040B1409540714093280220B1209520727E
:1006F0002093270250B15095507450932602809158
:100700003802833031F120F48130D9F0F0F409C09F
:10071000853009F470C008F445C0863009F071C016
:100720006DC081E080932B0280912F02811103C064
:100730001092380277C01092310281E08093380223
:1007400076C082E08093380286C083E080933802CE
:1007500092C0992379F0809131028F5F80933102AA
:1007600090913C02891710F080933C0284E08093C2
:10077000380294C0311104C0411102C0222361F03B
:100780008091310290913C02891710F080933C02D5
:1007900085E0809338028BC0552309F46CC0109219
:1007A000380240C0222379F0809131028F5F80931C
:1007B000310290913C02891710F080933C0286E050
:1007C0008093380289C0311104C0411102C09923BD
:1007D00061F08091310290913C02891710F0809372
:1007E0003C0285E08093380262C0552309F456C06C
:1007F0001092380217C01092380214C010923802BA
:1008000011C0833009F437C020F4813081F018F52D
:1008100009C0853009F44BC008F440C0863009F0A7
:1008200070C05AC010922F0210922B0208956CEDE6
:1008300075E080E090E0DFDC9FEF94B98FE085B950
:1008400097B988B9B1DC81E0A9DC60911C01709195
:100850001D0181E0ABCC8FE084B980EF85B99FEFBB
:1008600097B988B9A1DC81E099DC60911C01709195
:100870001D0181E09BCC6CE271E080E090E0BBDC8C
:100880008FEF84B985B987B918B88EDC81E086DC32
:10089000609114017091150181E088CC85DC81E0C4
:1008A0007DDC609112017091130181E07FCC68EED4
:1008B00073E080E090E09FDC60913C028EE290E08B
:1008C0009AD772DC81E06ADC60911801709119019D
:1008D00081E06CDC80E052CC68EE73E080E090E078
:1008E0008ADC60913C028EE290E085D75DDC81E09D
:1008F00055DC60911A0170911B0181E057DC80E0AA
:100900003DCC089540B14095447040932A0290B187
:10091000909598709093290230B130953071309352
:10092000280220B1209520722093270250B15095C3
:1009300050745093260280913E02863009F445C0DF
:1009400068F4823091F130F48823D9F0813009F0D5
:1009500013C127C0843089F1A0F52BC08A3009F477
:10096000B3C030F4883009F45DC008F084C031C0F1
:100970008C3009F4FBC008F4D0C08D3009F0FCC005
:10098000F8C081E080932B0280912E02811103C078
:1009900010923E0217C11092310281E080933E0214
:1009A00016C182E080933E0226C183E080933E021E
:1009B00032C184E080933E0239C185E080933E02DB
:1009C0004AC186E080933E0256C187E080933E0292
:1009D00062C1442379F0809131028F5F80933102AC
:1009E00090913C02891710F080933C0288E080933C
:1009F0003E0264C1911104C0311102C0222361F092
:100A00008091310290913C02891710F080933C0252
:100A10008CE080933E0276C1552309F43CC11092CC
:100A20003E02D0C0992379F0809131028F5F80938C
:100A3000310290913C02891710F080933C0289E0CA
:100A400080933E0244C1211104C0311102C04423ED
:100A500061F08091310290913C02891710F08093EF
:100A60003C028CE080933E024DC1552309F426C11F
:100A700010923E02A7C0992379F0809131028F5FD6
:100A80008093310290913C02891710F080933C02D0
:100A90008AE080933E0224C1211104C0311102C0BA
:100AA000442361F08091310290913C02891710F04B
:100AB00080933C028CE080933E0224C1552309F4CC
:100AC00006C110923E027EC0332379F0809131023C
:100AD0008F5F8093310290913C02891710F08093D0
:100AE0003C028BE080933E0204C1911104C02111AD
:100AF00002C0442361F08091310290913C02891739
:100B000010F080933C028CE080933E02FBC05523A2
:100B100009F4E6C010923E0255C0222379F080917C
:100B200031028F5F8093310290913C02891710F05F
:100B300080933C028DE080933E02F9C0911104C085
:100B4000311102C0442361F08091310290913C0246
:100B5000891710F080933C028CE080933E02D2C053
:100B6000552309F4C6C010923E022CC010923E02DA
:100B700029C010923E0226C0863009F47CC078F469
:100B80008230C9F130F48823E9F0813009F0E4C003
:100B90001EC0843009F44AC008F05DC03CC08A30F1
:100BA00009F49EC030F4883009F488C008F08FC082
:100BB00072C08C3009F4A6C008F49BC08D3009F0D7
:100BC000CBC0B5C010922E0210922B02089564EF94
:100BD00071E080E090E00FDB9FEF94B98FE085B982
:100BE00097B988B9E1DA81E0D9DA60911C01709196
:100BF0001D0181E0DBCA8FE084B990EF95B99FEFCA
:100C000097B988B9D1DA81E0C9DA60911C01709195
:100C10001D0181E0CBCA6BE470E080E090E0EBDA8C
:100C20008FEF84B985B987B918B8089564EF71E07A
:100C300080E090E0E0DA8FE084B990EF95B99FEF23
:100C400097B988B9B1DA81E0A9DA60911C01709195
:100C50001D0181E0ABCA8FEF84B99FE095B987B9D8
:100C600080EF88B9A1DA81E099DA60911C01709176
:100C70001D0181E09BCA8FE084B980EF85B99FEFA9
:100C800097B988B991DA81E089DA60911C01709195
:100C90001D0181E08BCA6CE271E080E090E0ABDA8C
:100CA0008FEF84B985B987B918B87EDA81E076DA32
:100CB000609114017091150181E078CA75DA81E0C4
:100CC0006DDA609112017091130181E06FCA6CDAE4
:100CD00081E064DA609110017091110181E066CACF
:100CE00063DA81E05BDA60910E0170910F0181E0BF
:100CF0005DCA5ADA81E052DA60910C0170910D01FF
:100D000081E054CA68EE73E080E090E074DA6091AC
:100D10003C028EE290E06FD547DA81E03FDA6091E5
:100D200018017091190181E041DA80E027CA68EE6C
:100D300073E080E090E05FDA60913C028EE290E048
:100D40005AD532DA81E02ADA60911A0170911B01DA
:100D500081E02CDA80E012CA089530B13095347009
:100D600030932A0290B1909598709093290220B107
:100D7000209520712093280280B180958072809305
:100D8000270250B1509550745093260240913A0278
:100D9000E42FF0E0E131F10508F054C1EA5BFF4FC8
:100DA0001CC581E080932B0280912D02811103C02C
:100DB00010923A0250C11092310281E080933A02BF
:100DC0004FC182E080933A025FC183E080933A0290
:100DD0006AC184E080933A0274C185E080933A024C
:100DE0007FC186E080933A028AC187E080933A020D
:100DF00095C188E080933A029FC1882379F0809161
:100E000031028F5F8093310290913C02891710F07C
:100E100080933C0289E080933A02A1C1911104C001
:100E2000211102C0332361F08091310290913C0284
:100E3000891710F080933C028FE080933A02CAC178
:100E4000552309F479C110923A0205C1222379F0A1
:100E5000809131028F5F8093310290913C0289171B
:100E600010F080933C028AE080933A0281C18111A4
:100E700004C0911102C0332361F08091310290913E
:100E80003C02891710F080933C028FE080933A0275
:100E9000A1C1552309F463C110923A02DCC0332387
:100EA00079F0809131028F5F8093310290913C0202
:100EB000891710F080933C028BE080933A0261C165
:100EC000811104C0211102C0992361F08091310287
:100ED00090913C02891710F080933C028FE0809340
:100EE0003A0278C1552309F443C110923A02B3C0C3
:100EF000882379F0809131028F5F80933102909145
:100F00003C02891710F080933C028CE080933A02F7
:100F100041C1911104C0211102C0332361F08091BD
:100F2000310290913C02891710F080933C028FE0CF
:100F300080933A024FC1552309F423C110923A021B
:100F40008AC0992379F0809131028F5F80933102BA
:100F500090913C02891710F080933C028DE08093C1
:100F60003A0221C1811104C0211102C0332361F072
:100F70008091310290913C02891710F080933C02DD
:100F80008FE080933A0226C1552309F403C11092E1
:100F90003A0261C0222379F0809131028F5F809301
:100FA000310290913C02891710F080933C028EE050
:100FB00080933A0203C1911104C0811102C033230E
:100FC00061F08091310290913C02891710F080937A
:100FD0003C028FE080933A02FDC0552309F4E3C040
:100FE00010923A0238C0332379F0809131028F5F3A
:100FF0008093310290913C02891710F080933C025B
:1010000080E180933A02FFC0911104C0211102C017
:10101000882361F08091310290913C02891710F091
:1010200080933C028FE080933A02D4C0552309F4A8
:10103000C5C010923A020FC010923A020CC0109232
:101040003A0209C0E42FF0E0E131F10508F0F5C003
:10105000E95AFF4FC2C310922D0210922B0208953D
:1010600064EF71E080E090E0C6D88FE084B980EF53
:1010700085B99FEF97B988B981E090D860911C013C
:1010800070911D0181E092C88FEF84B99FE095B9FE
:1010900087B980EF88B981E081D860911C01709197
:1010A0001D0181E083C89FEF94B98FE085B997B99E
:1010B00088B981E073D860911C0170911D0181E0B5
:1010C00075C88FE084B980EF85B99FEF97B988B96B
:1010D00081E064D860911C0170911D0181E066C8B7
:1010E0008FE084B990EF95B99FEF97B988B981E007
:1010F00055D860911C0170911D0181E057C88FEF98
:1011000084B99FE095B987B980EF88B981E046D866
:1011100060911C0170911D0181E048C89FEF94B956
:101120008FE085B997B988B981E038D860911C0102
:1011300070911D0181E03AC86CE271E080E090E0BE
:101140005AD88FEF84B985B987B918B82DD881E0FE
:1011500025D8609114017091150181E027C824D829
:1011600081E01CD8609112017091130181E01EC8CA
:101170001BD881E013D8609110017091110181E0BA
:1011800015C812D881E00AD860910E0170910F0144
:1011900081E00CC809D881E001D860910C01709100
:1011A0000D0181E003C800D881E00E94CE0060916B
:1011B0000A0170910B0181E00C94D6000E94D400CA
:1011C00081E00E94CE00609108017091090181E0E8
:1011D0000C94D60068EE73E080E090E00CD860914B
:1011E0003C028EE290E007D30E94D40081E00E948E
:1011F000CE00609118017091190181E00E94D60023
:1012000080E00C94BE0068EE73E080E090E00E9405
:10121000FB0060913C028EE290E0EDD20E94D4008F
:1012200081E00E94CE0060911A0170911B0181E063
:101230000E94D60080E00C94BE00089530B1309535
:10124000347030932A0220B120952870209329020F
:1012500080B1809580718093280290B190959072B2
:101260009093270250B150955074509326024091AC
:101270003D02E42FF0E0E131F10508F04EC1E859FC
:10128000FF4FABC281E080932B0280912C02811131
:1012900003C010923D024AC11092310281E0809356
:1012A0003D0249C182E080933D025BC183E08093AF
:1012B0003D0268C184E080933D0274C185E0809363
:1012C0003D0281C186E080933D028EC187E080931C
:1012D0003D029BC188E080933D02A7C1332309F4FE
:1012E00037C2882399F0809131028E5F809331025A
:1012F00090913C02891710F080933C0289E0809322
:101300003D02AAC1811102C0992321F08FE0809390
:101310003D02EAC1552309F488C110923D0206C17D
:10132000882379F0809131028F5F80933102909110
:101330003C02891710F080933C028AE080933D02C2
:1013400097C1911104C0211102C0332361F0809133
:10135000310290913C02891710F080933C028FE09B
:1013600080933D02C1C1552309F476C110923D021C
:10137000DDC0332379F0809131028F5F8093310299
:1013800090913C02891710F080933C028BE080938F
:101390003D027AC1911104C0811102C0222361F083
:1013A0008091310290913C02891710F080933C02A9
:1013B0008FE080933D0298C1552309F459C11092E2
:1013C0003D02B4C0992379F0809131028F5F809300
:1013D000310290913C02891710F080933C028CE01E
:1013E00080933D025DC1211104C0811102C03323ED
:1013F00061F08091310290913C02891710F0809346
:101400003C028FE080933D026FC1552309F43CC13B
:1014100010923D028BC0222379F0809131028F5FC0
:101420008093310290913C02891710F080933C0226
:101430008DE080933D0240C1911104C0811102C032
:10144000332361F08091310290913C02891710F0B2
:1014500080933C028FE080933D0246C1552309F4FE
:101460001FC110923D0262C0882379F08091310241
:101470008F5F8093310290913C02891710F0809326
:101480003C028EE080933D0223C1211104C09111E2
:1014900002C0332361F08091310290913C028917A0
:1014A00010F080933C028FE080933D021DC15523D4
:1014B00009F402C110923D0239C0222309F44BC144
:1014C000992399F0809131028E5F8093310290913F
:1014D0003C02891710F080933C0280E180933D022A
:1014E0001DC1911102C0882361F080913102909159
:1014F0003C02891710F080933C028FE080933D02FC
:10150000F3C0552309F4E4C010923D020FC01092BD
:101510003D020CC010923D0209C0E42FF0E0E13121
:10152000F10508F01BC1E758FF4F57C110922C027C
:1015300010922B02089564EF71E080E090E00E9429
:10154000FB008FEF84B99FE095B987B988B981E036
:101550000E94CE0060911C0170911D0181E00C94ED
:10156000D6008FEF84B99FE095B987B980EF88B92D
:1015700081E00E94CE0060911C0170911D0181E00C
:101580000C94D6009FEF94B98FE085B997B988B9CC
:1015900081E00E94CE0060911C0170911D0181E0EC
:1015A0000C94D6008FE084B980EF85B99FEF97B98E
:1015B00088B981E00E94CE0060911C0170911D01EC
:1015C00081E00C94D6008FE084B990EF95B99FEF3D
:1015D00097B988B981E00E94CE0060911C0170919A
:1015E0001D0181E00C94D6008FEF84B99FE095B97E
:1015F00087B980EF88B981E00E94CE0060911C011C
:1016000070911D0181E00C94D6008FEF84B990EFAA
:1016100095B987B988B981E00E94CE0060911C011C
:1016200070911D0181E00C94D6006CE271E080E0C5
:1016300090E00E94FB008FEF84B985B987B918B894
:101640000E94D40081E00E94CE006091140170914C
:10165000150181E00C94D6000E94D40081E00E9424
:10166000CE00609112017091130181E00C94D600BC
:101670000E94D40081E00E94CE0060911001709120
:10168000110181E00C94D6000E94D40081E00E94F8
:10169000CE0060910E0170910F0181E00C94D60094
:1016A0000E94D40081E00E94CE0060910C017091F4
:1016B0000D0181E00C94D6000E94D40081E00E94CC
:1016C000CE0060910A0170910B0181E00C94D6006C
:1016D0000E94D40081E00E94CE00609108017091C8
:1016E000090181E00C94D60068EE73E080E090E0A0
:1016F0000E94FB0060913C028EE290E07CD00E9450
:10170000D40081E00E94CE0060911801709119010F
:1017100081E00E94D60080E00C94BE0068EE73E089
:1017200080E090E00E94FB0060913C028EE290E03D
:1017300062D00E94D40081E00E94CE0060911A0124
:1017400070911B0181E00E94D60080E00C94BE00E5
:101750002111DCCDD7CD3111C8CEC3CE089583E0A1
:1017600081B98CEF82B98FEF8AB91BB884B985B97A
:1017700087B918B880E40E94C600C0E0D1E008E054
:1017800011E089910E94BE00C017D107D1F780E80F
:101790000E94C60064EF71E080E090E00E94FB00D0
:1017A0000E940C0110923B02109239020E94ED003F
:1017B0000E94D40081E00E94CE000E9482010E941B
:1017C00087020E9466039ED8C8DA38DD809137020E
:1017D0008823E1F310923702F0CFEE0FFF1F059040
:1017E000F491E02D0994F999FECF92BD81BDF89A4C
:1017F000992780B50895262FF999FECF1FBA92BD7B
:1018000081BD20BD0FB6F894FA9AF99A0FBE0196E1
:061810000895F894FFCFDB
:101816000E0E0E0415040A0A2501370149015B0163
:101826006D017F019101A301B001C101DB01E70157
:101836000101000000456E746572204B65792050E9
:1018460072657373203700456E746572204B657937
:10185600205072657373203600456E746572204B96
:101866006579205072657373203500456E74657214
:10187600204B6579205072657373203400456E7471
:101886006572204B6579205072657373203300456D
:101896006E746572204B65792050726573732032C1
:1018A60000456E746572204B6579205072657373BE
:1018B600203100486967682053636F72653A2000DB
:1018C600536F7272792C20496E636F7272656374FE
:1018D60000596F752057696E212020202020202076
:1018E60020436F6E67726174732100426567696E8B
:1018F6002047616D652100312E5374617274203268
:101906002E43686F6F7365332E53636F7265732052
:10191600204C6576656C0053696D6F6E2053617956
:1019260073204869212020507265737320416E79B7
:06193600204B6579210041
:00000001FF
