:100000008AC00000A5C00000A3C00000A1C000007D
:100010009FC000009DC000009BC0000099C0000070
:1000200097C0000095C0000093C0000091C0000080
:100030008FC000000BC100008BC0000089C0000011
:1000400087C0000085C0000083C0000081C00000A0
:100050007FC000007DC000007BC0000079C00000B0
:1000600077C0000075C0000073C0000071C00000C0
:100070006FC000006DC000006BC0000069C00000D0
:1000800067C0000065C0000063C00000C1023E03FD
:100090003E033E033E033E033E033E033E033E0358
:1000A0003E033E033E033E033E033E033E033E0348
:1000B0003E033E033E033E033E033E033E033E0338
:1000C0003E033E033E033E033E033E033E033E0328
:1000D0003E0337033E033E033E033E033E033E031F
:1000E00030033E033E033E033E033E030C03C502C2
:1000F000CC02D402DC02E402EC02F402FC020403AF
:100100003E033E033E033E033E033E033E03130312
:100110001B032203290311241FBECFEFD0E4DEBF4F
:10012000CDBF11E0A0E0B1E0E2E9F6E000E00BBFF6
:1001300002C007900D92A630B107D9F721E0A6E0E2
:10014000B1E001C01D92A831B207E1F781D19FC291
:1001500057CF181619065CF0089500002150310998
:10016000E1F74F5F5F4F4817590729F4089540E0C2
:1001700050E067E073E09B01F0CF109A8BB9119AC1
:100180000000119881E090E0E4CF10988BB9119AAB
:100190000000119882E090E0DCCF813110F48158AA
:1001A000F4CF8155F2CF81E0F0CF84E690E0D1DF4B
:1001B00088E3EBDF86E0E9DF8FE0E7DF81E0E5DF82
:1001C0008AE090E0C6CF21E030E0A90102C0440FF0
:1001D000551F6A95E2F78423089560930101709397
:1001E00002018093030190930401609308017093CE
:1001F000090180930A0190930B0108958BE080938D
:1002000081008DE790E0909389008093880082E0E0
:1002100080936F00109285001092840080910101FC
:1002200090910201A0910301B09104018093080113
:1002300090930901A0930A01B0930B018FB78068D6
:100240008FBF089581E080930C0108951F920F9253
:100250000FB60F9211240BB60F922F933F934F932B
:100260005F936F937F938F939F93AF93BF93EF931E
:10027000FF938091080190910901A0910A01B0912A
:100280000B010197A109B10980930801909309011D
:10029000A0930A01B0930B01892B8A2B8B2B89F435
:1002A000D1DF8091010190910201A0910301B091F1
:1002B00004018093080190930901A0930A01B0936F
:1002C0000B01FF91EF91BF91AF919F918F917F9122
:1002D0006F915F914F913F912F910F900BBE0F90B7
:1002E0000FBE0F901F9018958FEE88B9000086B151
:1002F00060E069DF882309F45EC086B161E063DFF6
:10030000882309F45AC086B162E05DDF882309F4CE
:1003100056C086B163E057DF882309F452C08FEDE1
:1003200088B9000086B160E04EDF882309F44BC035
:1003300086B161E048DF882309F447C086B162E0F6
:1003400042DF882309F443C086B163E03CDF8823A1
:1003500009F43FC08FEB88B9000086B160E033DF5D
:10036000882309F438C086B161E02DDF8823A9F124
:1003700086B162E028DF882391F186B163E023DF54
:10038000882379F18FE788B9000086B160E01BDF30
:10039000882349F186B161E016DF882331F186B107
:1003A00062E011DF882319F186B163E00CDF81116F
:1003B00020C084E4089581E3089584E3089587E3E9
:1003C00008958AE2089582E3089585E3089588E315
:1003D000089580E3089583E3089586E3089589E30B
:1003E000089583E2089581E4089582E4089583E402
:1003F000089580E008958130910551F08230910593
:1004000079F0892B51F4809100018F3179F408C083
:10041000809100018F3151F412C08FE1809300016F
:1004200063DF8093000120E030E00FC05DDF809348
:1004300000015ADF8093070121E030E006C080917F
:1004400007018093060122E030E0822F932F089568
:10045000CFEFC4B915B880EF87B98FE088B9C093E2
:100460000D0182E390E0A0E0B0E080930E01909354
:100470000F01A0931001B09311018093120190938A
:100480001301A0931401B09315018BEF91E09093A9
:1004900017018093160162E370E080E090E09DDE3A
:1004A000ADDECAB91BB8C1B912B87FDE7CDE81E00F
:1004B00074DE80E090E0C2E1D1E00F2EFEE0EF2E8E
:1004C000F1E0FF2EF02D01E010E00F2EF6E18F2E6F
:1004D000F1E09F2EF02D0F2EFDE0AF2EF1E0BF2EAC
:1004E000F02D0F2EFBE12F2EF02DC12CD12C0F2E35
:1004F000FFE03F2EF02D0F2EFEE04F2EF02D0F2EA1
:10050000FDE05F2EF02D0F2EFCE06F2EF02D0F2E54
:10051000FBE07F2EF02D29C0488159816A817B81C3
:10052000F70180819181A281B381481759076A0739
:100530007B0779F4D5018C91D401ED91FC91992739
:1005400087FD90950995F5018083188219821A829A
:100550001B8288819981AA81BB810196A11DB11D51
:1005600088839983AA83BB83C801892BA9F2E09170
:100570000701F0E0E534F10508F080C0EA5BFF4FC9
:1005800080C08FE185B9C601F0CF81E085B905DE75
:1005900081E3F3DDC601E9CF82E085B981E0FDDDCD
:1005A00082E3EBDDC601E1CF83E085B981E0F5DDD3
:1005B00083E3E3DDC601D9CF84E085B981E0EDDDD9
:1005C00084E3DBDDC601D1CF85E085B981E0E5DDDF
:1005D00085E3D3DDC601C9CF86E085B981E0DDDDE5
:1005E00086E3CBDDC601C1CF87E085B981E0D5DDEB
:1005F00087E3C3DDC601B9CF88E085B981E0CDDDF1
:1006000088E3BBDDC601B1CF89E085B981E0C5DDF6
:1006100089E3B3DDC601A9CF15B881E0BEDD80E373
:10062000ACDDC601A2CFFAE0F5B981E0B6DD81E428
:10063000A4DDC6019ACF75B881E0AFDD82E49DDD0F
:10064000C60193CF65B881E0A8DD83E496DDC601DD
:100650008CCF55B881E0A1DD84E48FDDC60185CF64
:1006600045B881E09ADD8AE288DDC6017ECF35B8E3
:1006700081E093DD83E281DDC60177CF25B8C60135
:1006800074CFEE0FFF1F0590F491E02D0994F894BC
:02069000FFCF9A
:060692001F010000000042
:00000001FF
