S01B000072676F73683030315F6C6162375F70617274322E7372656348
S113000045C0000060C000005EC000005CC000008D
S11300105AC0000058C0000056C0000054C0000080
S113002052C0000050C000004EC000004CC0000090
S11300304AC0000011C1000046C0000044C00000D6
S113004042C0000040C000003EC000003CC00000B0
S11300503AC0000038C0000036C0000034C00000C0
S113006032C0000030C000002EC000002CC00000D0
S11300702AC0000028C0000026C0000024C00000E0
S113008022C0000020C000001EC0000011241FBEBA
S1130090CFEFD0E4DEBFCDBF11E0A0E0B1E0ECE2F1
S11300A0F4E000E00BBF02C007900D92AE32B1073E
S11300B0D9F721E0AEE2B1E001C01D92A035B2074C
S11300C0E1F718D1B1C19CCF181619065CF0089558
S11300D0000021503109E1F74F5F5F4F481759077E
S11300E029F4089540E050E067E073E09B01F0CF0D
S11300F0109A8BB9119A0000119881E090E0E4CF36
S113010010988BB9119A0000119882E090E0DCCF2E
S1130110813110F48158F4CF8155F2CF81E0F0CFD2
S11301201F93CF93DF93182FEB01F8DF9881992366
S113013051F0812F182F1F5FEBDF8991D9DF812FB9
S113014098819111F7CFDF91CF911F910895CF92AC
S1130150DF92EF92FF920F931F93CF93DF93C82EFA
S1130160D92EE0900001F0900101C0912E01EFE33F
S1130170F1E00FE411E0D0E0CE1BDF0B26E230E02B
S1130180CE018E0F9F1FB90128D1D701A80FB91F27
S11301908C918193E017F10799F780912E0190E0FB
S11301A0019666E270E019D180932E016FE371E04D
S11301B081E0B6DF8C2D9D2DDF91CF911F910F91A2
S11301C0FF90EF90DF90CF90089584E690E07CDF7D
S11301D088E396DF86E094DF8FE092DF81E090DFB2
S11301E08AE090E071CF60930201709303018093E1
S11301F004019093050160932F0170933001809363
S113020031019093320108958BE0809381008DE752
S113021090E0909389008093880082E080936F003F
S11302201092850010928400809102019091030144
S1130230A0910401B091050180932F0190933001A6
S1130240A0933101B09332018FB780688FBF0895B6
S113025081E08093330108951F920F920FB60F929D
S113026011240BB60F922F933F934F935F936F9389
S11302707F938F939F93AF93BF93EF93FF9380915B
S11302802F0190913001A0913101B0913201019779
S1130290A109B10980932F0190933001A0933101FA
S11302A0B0933201892B8A2B8B2B89F4D1DF809177
S11302B0020190910301A0910401B0910501809382
S11302C02F0190933001A0933101B0933201FF913B
S11302D0EF91BF91AF919F918F917F916F915F91BA
S11302E04F913F912F910F900BBE0F900FBE0F9027
S11302F01F9018958FEF8AB91BB881B912B88093F3
S1130300340184E190E0A0E0B0E080933501909363
S11303103601A0933701B09338018093390190934B
S11303203A01A0933B01B0933C0187EA90E090939B
S11303303E0180933D0164E170E080E090E053DF92
S113034063DF43DF80E090E0C12CD12CC9E3D1E02E
S113035005E311E0EE24E394F12C0F2EFDE38F2E40
S1130360F1E09F2EF02D0F2EF4E3AF2EF1E0BF2E1F
S1130370F02D29C0488159816A817B81F8018081EF
S11303809181A281B381481759076A077B0779F4E1
S1130390D5018C91D401ED91FC91992787FD90951D
S11303A00995F5018083188219821A821B8288813B
S11303B09981AA81BB810196A11DB11D888399836E
S11303C0AA83BB83C701892BA9F2809133018823B7
S11303D0E1F310923301C601F6CF97FB072E16F412
S11303E0009406D077FD08D00BD007FC05D03EF46E
S11303F0909581959F4F0895709561957F4F0895CD
S1130400AA1BBB1B51E107C0AA1FBB1FA617B70736
S113041010F0A61BB70B881F991F5A95A9F7809552
S10F04209095BC01CD010895F894FFCF25
S113042C060101000000435331323042206973202D
S113043C4C6567656E642E2E2E2077616974206678
S111044C6F722069742044415259212000002F
S9030000FC
