S02500005261736869645F46696E616C50726F6A6563745F53696D6F6E536179732E737265637F
S113000045C0000060C000005EC000005CC000008D
S11300105AC0000058C0000056C0000054C0000080
S113002052C0000050C000004EC000004CC0000090
S11300304AC00000D3C0000046C0000044C0000015
S113004042C0000040C000003EC000003CC00000B0
S11300503AC0000038C0000036C0000034C00000C0
S113006032C0000030C000002EC000002CC00000D0
S11300702AC0000028C0000026C0000024C00000E0
S113008022C0000020C000001EC0000011241FBEBA
S1130090CFEFD0E4DEBFCDBF11E0A0E0B1E0E0E3FC
S11300A0F5E000E00BBF02C007900D92AC3BB10736
S11300B0D9F721E0ACEBB1E001C01D92AD3CB20731
S11300C0E1F714D233C29CCF181619065CF00895D8
S11300D0000021503109E1F74F5F5F4F481759077E
S11300E029F4089540E050E067E073E09B01F0CF0D
S11300F0109A8BB9119A0000119881E090E0E4CF36
S113010010988BB9119A0000119882E090E0DCCF2E
S1130110813110F48158F4CF8155F2CF81E0F0CFD2
S11301201F93CF93DF93182FEB01F8DF9881992366
S113013051F0812F182F1F5FEBDF8991D9DF812FB9
S113014098819111F7CFDF91CF911F91089584E6A3
S113015090E0BADF88E3D4DF86E0D2DF8FE0D0DF3F
S113016081E0CEDF8AE090E0AFCF60930F0170931F
S1130170100180931101909312016093C501709353
S1130180C6018093C7019093C80108958BE08093C2
S113019081008DE790E0909389008093880082E04D
S11301A080936F00109285001092840080910F015B
S11301B090911001A0911101B09112018093C50199
S11301C09093C601A093C701B093C8018FB780680C
S11301D08FBF089581E08093C90108951F920F9203
S11301E00FB60F9211240BB60F922F933F934F9398
S11301F05F936F937F938F939F93AF93BF93EF938B
S1130200FF938091C5019091C601A091C701B0915F
S1130210C8010197A109B1098093C5019093C60152
S1130220A093C701B093C801892B8A2B8B2B89F427
S1130230D1DF80910F0190911001A0911101B09133
S113024012018093C5019093C601A093C701B09396
S1130250C801FF91EF91BF91AF919F918F917F91D1
S11302606F915F914F913F912F910F900BBE0F9023
S11302700FBE0F901F9018951092C30120B12095C6
S113028024702093C00130B1309538703093BF0191
S113029040B1409540714093BE0150B150955072A9
S11302A05093BD0190B1909590749093BC0180914E
S11302B0CB01823089F130F4882351F0813009F088
S11302C045C012C0833089F1843009F03FC039C081
S11302D0211106C0311104C0411102C05523C1F1DE
S11302E081E08093CB0140C0222359F031110BC02F
S11302F041110DC081E08093C30182E08093CB0162
S11303000895332321F083E08093CB0138C09923EF
S113031059F11092CB011CC08091C201882309F4C9
S113032039C081E08093CB011FC0992319F010924A
S1130330CB010EC08091C101811121C01092CB016B
S113034007C0992301F11092CB0102C01092CB0196
S1130350E5DE81E0DDDE60910D0170910E0181E04A
S1130360DFDE1092C40108951092C401D7DE81E04B
S1130370CFDE60910B0170910C0181E0D1CE81E060
S11303808093C1010895CADE81E0C2DE8091C40178
S1130390805DAECE089590B1909594709093C00115
S11303A020B1209528702093BF0130B13095307171
S11303B03093BE0140B1409540724093BD0150B1AD
S11303C0509550745093BC018091CA01823051F110
S11303D030F4882351F0813009F043C01FC08330CA
S11303E0D9F1843009F03DC034C081E08093C2016A
S11303F08091C301811103C01092CA010895813014
S113040081F58CDE81E084DE6091090170910A013E
S113041081E086DE81E08093CA0132C082E080936D
S1130420CA013EC0992321F084E08093CA014BC0E5
S1130430211104C0311102C0442321F083E08093D0
S1130440CA014AC0552361F11092C3011092CA0136
S113045008951092CA0108951092CA0181E0809310
S1130460C3018091CA018230D9F020F4813009F0AF
S11304703CC006C0833081F1843009F036C023C00B
S113048060ED77E080E090E070DE8091020184B955
S113049087B98091010185B98091000188B90895D7
S11304A064EF71E080E090E060DE8FEF84B985B99D
S11304B087B918B833DE81E02BDE609103017091B7
S11304C0040181E02DCE2ADE81E022DE6091070165
S11304D07091080181E024CE21DE81E019DE609173
S11304E005017091060181E01BCE089583E081B976
S11304F08CEF82B98FEF8AB91BB884B985B987B9F3
S113050018B864EF71E080E090E02FDE3FDE1092D7
S1130510CB011DDE03DE81E0FBDDAEDE3CDF80913E
S1130520C9018823E1F31092C901F7CFF894FFCFF2
S11305300F0FFF2E01420153016F017B019C01014A
S1130540000000456E746572204C6576656C204F22
S11305506E20372D53656720446973702E00456EF5
S1130560746572204B6579205072657373204E6FE9
S11305707700536F7272792C20496E636F727265C3
S1130580637400476F6F64204A6F6221202020202B
S11305902020204E657874204C6576656C210042DD
S11305A06567696E2047616D652100312E53746162
S11305B072742F322E43686F6F7365332E53636FDB
S11305C07265732F2F2F4C6576656C0053696D6FC0
S11305D06E2053617973204869212020507265731D
S10F05E07320416E79204B6579210000E6
S9030000FC
