S01B000072676F73683030315F6C6162355F70617274342E7372656348
S113000045C0000060C000005EC000005CC000008D
S11300105AC0000058C0000056C0000054C0000080
S113002052C0000050C000004EC000004CC0000090
S11300304AC0000071C0000046C0000044C0000077
S113004042C0000040C000003EC000003CC00000B0
S11300503AC0000038C0000036C0000034C00000C0
S113006032C0000030C000002EC000002CC00000D0
S11300702AC0000028C0000026C0000024C00000E0
S113008022C0000020C000001EC0000011241FBEBA
S1130090CFEFD0E4DEBFCDBF11E0A0E0B1E0E4EFEC
S11300A0F2E000E00BBF02C007900D92A430B1074C
S11300B0D9F721E0A4E0B1E001C01D92A031B2075C
S11300C0E1F7DCD015C19CCF81E080930B0108954A
S11300D08BE0809381008DE790E09093890080937A
S11300E0880082E080936F00109285001092840053
S11300F08091000190910101A0910201B09103014E
S11301008093040190930501A0930601B093070125
S11301108FB780688FBF08951F920F920FB60F920A
S113012011240BB60F922F933F934F935F936F93CA
S11301307F938F939F93AF93BF93EF93FF9380919C
S1130140040190910501A0910601B0910701019766
S1130150A109B1098093040190930501A0930601BC
S1130160B0930701892B8A2B8B2B89F4ADDF809107
S1130170000190910101A0910201B09103018093CB
S1130180040190930501A0930601B0930701FF9128
S1130190EF91BF91AF919F918F917F916F915F91FB
S11301A04F913F912F910F900BBE0F900FBE0F9068
S11301B01F901895609300017093010180930201D0
S11301C090930301609304017093050180930601E9
S11301D090930701089590B180910F01882319F03D
S11301E010920F0109C092FD07C081E080930F01B6
S11301F080E1809308010895109208010895809188
S11302000D01813071F030F010920D0181E0809386
S11302100A01089581E080930D0182E080930A0130
S1130220089582E080930D0184E080930A0108958B
S113023080910E01882319F0813059F404C081E0C3
S113024080930E0109C010920E0188E08093090189
S1130250089581E080930E01109209010895809120
S11302600C01811110920C019091090180910A01F5
S1130270892B90910801892B85B9089511B88FEFC6
S113028082B984B915B862E070E080E090E092DF52
S11302901FDF10920D0110920E0110920C019BDFD2
S11302A0E12CF12C00E010E0C0E0D0E0C12CD12C16
S11302B007C0BEDF8601C639D10511F4A0DFE6010F
S11302C081E0E816F10411F4CADF760180910B0194
S11302D08823E1F310920B018FEFE81AF80A2196B4
S11302E00F5F1F4F78DF043F81E0180721F7E1CF4C
S10702F0F894FFCFAC
S10702F40100000001
S9030000FC
