:1000000045C0000060C000005EC000005CC0000091
:100010005AC0000058C0000056C0000054C0000084
:1000200052C0000050C000004EC000004CC0000094
:100030004AC000009DC0000046C0000044C000004F
:1000400042C0000040C000003EC000003CC00000B4
:100050003AC0000038C0000036C0000034C00000C4
:1000600032C0000030C000002EC000002CC00000D4
:100070002AC0000028C0000026C0000024C00000E4
:1000800022C0000020C000001EC0000011241FBEBE
:10009000CFEFD0E4DEBFCDBF11E0A0E0B1E0EAE6F3
:1000A000F3E000E00BBF02C007900D92A430B1074F
:1000B000D9F721E0A4E0B1E001C01D92AD30B20754
:1000C000E1F737D150C19CCF181619065CF008959E
:1000D000000021503109E1F74F5F5F4F4817590782
:1000E00029F4089540E050E067E073E09B01F0CF11
:1000F000109A8BB9119A0000119881E090E0E4CF3A
:1001000010988BB9119A0000119882E090E0DCCF32
:10011000813110F48158F4CF8155F2CF81E0F0CFD6
:100120008BE0809381008DE790E09093890080932D
:10013000880082E080936F00109285001092840006
:100140008091000190910101A0910201B091030101
:100150008093070190930801A0930901B0930A01CD
:100160008FB780688FBF089581E080930B01089559
:100170001F920F920FB60F9211240BB60F922F936E
:100180003F934F935F936F937F938F939F93AF931F
:10019000BF93EF93FF938091070190910801A09185
:1001A0000901B0910A010197A109B10980930701E2
:1001B00090930801A0930901B0930A01892B8A2B1F
:1001C0008B2B89F4D1DF8091000190910101A091E6
:1001D0000201B09103018093070190930801A0935D
:1001E0000901B0930A01FF91EF91BF91AF919F91E7
:1001F0008F917F916F915F914F913F912F910F90D0
:100200000BBE0F900FBE0F901F90189560930001CA
:1002100070930101809302019093030160930701A1
:10022000709308018093090190930A01089590B199
:10023000909591709093060120B1209522702093A3
:10024000050180910C01813059F030F0823051F17C
:10025000833009F049C038C081E080930C0154C05C
:10026000992389F0222319F010920C014AC082E0F0
:1002700080930C0180910401893008F04BC08F5F9E
:100280008093040134C0222309F43EC083E08093AC
:100290000C0180910401882309F443C081508093AC
:1002A000040125C0992351F0211134C0809104012B
:1002B000893080F58F5F8093040119C021112AC015
:1002C00081E080930C0120C091112BC0222341F0CA
:1002D00080910401882329F181508093040107C093
:1002E00081E080930C0110C010920C010AC0809133
:1002F0000C01813049F028F0823061F08330C1F484
:1003000010C0109204010ACF81E002DF8091040145
:10031000805DEECE03DF81E0FBDE80910401805D35
:10032000E7CEFCDE81E0F4DE80910401805DE0CE6A
:10033000089511B88FEF82B987B918B88AB91BB878
:1003400068EE73E080E090E061DFEADE10920C017D
:10035000E5DE81E0DDDE6BDF80910B018823E1F3D8
:0A03600010920B01F8CFF894FFCFC4
:04036A00010000008E
:00000001FF
