:1000000045C0000060C000005EC000005CC0000091
:100010005AC0000058C0000056C0000054C0000084
:1000200052C0000050C000004EC000004CC0000094
:100030004AC0000071C0000046C0000044C000007B
:1000400042C0000040C000003EC000003CC00000B4
:100050003AC0000038C0000036C0000034C00000C4
:1000600032C0000030C000002EC000002CC00000D4
:100070002AC0000028C0000026C0000024C00000E4
:1000800022C0000020C000001EC0000011241FBEBE
:10009000CFEFD0E4DEBFCDBF11E0A0E0B1E0EAE9F0
:1000A000F2E000E00BBF02C007900D92A430B10750
:1000B000D9F721E0A4E0B1E001C01D92AE30B20753
:1000C000E1F7C5D0E8C09CCF81E080930A01089594
:1000D0008BE0809381008DE790E09093890080937E
:1000E000880082E080936F00109285001092840057
:1000F0008091000190910101A0910201B091030152
:100100008093040190930501A0930601B093070129
:100110008FB780688FBF08951F920F920FB60F920E
:1001200011240BB60F922F933F934F935F936F93CE
:100130007F938F939F93AF93BF93EF93FF938091A0
:10014000040190910501A0910601B091070101976A
:10015000A109B1098093040190930501A0930601C0
:10016000B0930701892B8A2B8B2B89F4ADDF80910B
:10017000000190910101A0910201B09103018093CF
:10018000040190930501A0930601B0930701FF912C
:10019000EF91BF91AF919F918F917F916F915F91FF
:1001A0004F913F912F910F900BBE0F900FBE0F906C
:1001B0001F901895609300017093010180930201D4
:1001C00090930301609304017093050180930601ED
:1001D00090930701089580910C01813071F030F007
:1001E00010920C0181E080930901089581E08093D1
:1001F0000C0182E080930901089582E080930C0154
:1002000084E080930901089580910D01882319F0FD
:10021000813059F404C081E080930D0109C010922F
:100220000D0188E080930801089581E080930D011D
:1002300010920801089580910B01811110920B0119
:100240009091080180910901892B85B908958FEF5C
:1002500084B915B864E670E080E090E0ABDF38DF89
:1002600010920C0110920D0110920B01D1E0C1E02F
:1002700006C0CADFD0E0C33011F4ADDFC0E0DBDF81
:1002800080910A018823E1F310920A01CF5FDF5FBA
:0A029000DA3089F7EECFF894FFCFC3
:04029A00010000005F
:00000001FF
